:100000000C945D000C947A000C947A000C947A00A5
:100010000C947A000C947A000C947A000C944301AE
:100020000C947A000C947A000C947A000C947A0068
:100030000C947A000C947A000C947A000C947A0058
:100040000C94C5010C947A000C947A000C947A00FC
:100050000C947A000C947A000C947A000C947A0038
:100060000C947A000C947A00000000080002010051
:100070000003040700000000000000000200000070
:1000800000250028002B0000000000240027002A83
:100090000004040404040404040202020202020331
:1000A000030303030301020408102040800102043B
:1000B0000810200102040810200011241FBECFEFF9
:1000C000D8E0DEBFCDBF11E0A0E0B1E0E0EAF6E0AD
:1000D00002C005900D92A230B107D9F721E0A2E04D
:1000E000B1E001C01D92A032B207E1F70E940F02F9
:1000F0000C944E030C94000090E0FC01EB55FF4F74
:100100002491FC01EF56FF4F8491882399F090E0F1
:10011000880F991FFC01E957FF4FA591B491FC018D
:10012000E358FF4F859194918FB7F894EC91E22BAF
:10013000EC938FBF089590E0FC01E859FF4F349194
:10014000FC01EB55FF4F2491FC01EF56FF4FE4916A
:10015000EE2309F43BC0332339F1333091F038F406
:100160003130A9F0323001F584B58F7D12C03730BF
:1001700091F03830A1F03430B9F4809180008F7D57
:1001800003C0809180008F77809380000DC084B57C
:100190008F7784BD09C08091B0008F7703C08091B4
:1001A000B0008F7D8093B000F0E0EE0FFF1FE358AA
:1001B000FF4FA591B4918FB7F894EC91611103C0F2
:1001C00020952E2301C02E2B2C938FBF08953FB76F
:1001D000F8948091070190910801A0910901B091D4
:1001E0000A0126B5A89B05C02F3F19F00196A11D55
:1001F000B11D3FBFBA2FA92F982F8827820F911DBD
:10020000A11DB11DBC01CD0142E0660F771F881F03
:10021000991F4A95D1F708958F929F92AF92BF92FE
:10022000CF92DF92EF92FF920E94E7004B015C01B8
:1002300088ECC82ED12CE12CF12C0E94E700DC01C7
:10024000CB0188199909AA09BB09883E9340A105E9
:10025000B10558F021E0C21AD108E108F10888EE92
:10026000880E83E0981EA11CB11CC114D104E104C6
:10027000F10419F7FF90EF90DF90CF90BF90AF900F
:100280009F908F9008951F920F920FB60F92112496
:100290002F933F934F935F936F937F938F939F938E
:1002A000AF93BF93EF93FF93809114019091150149
:1002B000A0911601B0911701892B8A2B8B2B59F134
:1002C00080910B01E0910C01F0910D019081892743
:1002D00080838091140190911501A0911601B09135
:1002E0001701181619061A061B060CF03DC080915E
:1002F000140190911501A0911601B0911701019779
:10030000A109B1098093140190931501A0931601DE
:10031000B093170129C080910001ECE7F0E0E4916F
:100320009FEF90930001E130B9F098F0E230C9F40A
:10033000909170009D7F9093700091E09093B00039
:100340009091B100987F94609093B1001092B300A7
:1003500008C010926E0005C090916F009D7F909331
:100360006F0060E00E949B00FF91EF91BF91AF9101
:100370009F918F917F916F915F914F913F912F91BD
:100380000F900FBE0F901F9018951F920F920FB6EF
:100390000F9211242F933F938F939F93AF93BF930B
:1003A0008091030190910401A0910501B091060193
:1003B0003091020123E0230F2D3720F40196A11D77
:1003C000B11D05C026E8230F0296A11DB11D209383
:1003D00002018093030190930401A0930501B0935F
:1003E00006018091070190910801A0910901B09147
:1003F0000A010196A11DB11D809307019093080188
:10040000A0930901B0930A01BF91AF919F918F9181
:100410003F912F910F900FBE0F901F9018957894D9
:1004200084B5826084BD84B5816084BD85B58260F9
:1004300085BD85B5816085BD80916E0081608093AA
:100440006E00109281008091810082608093810013
:100450008091810081608093810080918000816023
:10046000809380008091B10084608093B10080917E
:10047000B00081608093B00080917A0084608093A6
:100480007A0080917A00826080937A0080917A006D
:10049000816080937A0080917A00806880937A00EE
:1004A0001092C1008DE00E947C008EE00E947C00D2
:1004B00039E6A32E3AE0B32E4CE7C42E40E0D42E0A
:1004C0000FE910E053EBE52E50E0F52E60E0862EAC
:1004D00060E0962E70EB472E74E0572E612C712C45
:1004E000D8E2809100018E3019F4F601C49171C0F8
:1004F0008F3F09F0A5C08EE080930001F601C49102
:10050000CF3F09F49DC0C13001F1C23009F43FC0B2
:10051000C1115FC014BC15BC84B5826084BD85B5B3
:10052000816085BDF8018491E82FF0E0EE0FFF1F98
:10053000E358FF4F8591949190931301809312019A
:10054000F70184918093110146C0109280001092AF
:10055000810080918100886080938100809181007A
:10056000816080938100F8018491E82FF0E0EE0F24
:10057000FF1FE358FF4F8591949190931001809352
:100580000F01F701849180930E01C1E024C0109205
:10059000B0001092B1008091B00082608093B000F2
:1005A0008091B10081608093B100F8018491E82FBF
:1005B000F0E0EE0FFF1FE358FF4F85919491909369
:1005C0000D0180930C01F701849180930B01C2E02F
:1005D00002C0C7FD35C08EE00E947C00CC2309F428
:1005E0004AC0C23009F43FC0C130C1F480918100DB
:1005F000887F816080938100B0928900A0928800FA
:10060000409218015092190160921A0170921B01D8
:1006100080916F00826080936F0012C0C23081F4BD
:1006200089E68093B30040921401509215016092C4
:1006300016017092170180917000826080937000A3
:1006400061E08DE00E949B000E940C0160E08DE063
:100650000E949B000E940C018114910409F441CF77
:100660000E9400003DCF8091B100887F836080931D
:10067000B10082E5D6CF85B5887F836085BDD7BDC3
:1006800040921C0150921D0160921E0170921F0148
:1006900080916E00826080936E00D2CFF894FFCF7D
:0206A000FF0059
:00000001FF
